{
  "_format": "hh-sol-artifact-1",
  "contractName": "Dfistival",
  "sourceName": "contracts/Dfistival.sol",
  "abi": [
    {
      "inputs": [
        {
          "internalType": "uint256",
          "name": "_pct",
          "type": "uint256"
        }
      ],
      "stateMutability": "nonpayable",
      "type": "constructor"
    },
    {
      "inputs": [
        {
          "internalType": "address",
          "name": "sender",
          "type": "address"
        },
        {
          "internalType": "uint256",
          "name": "tokenId",
          "type": "uint256"
        },
        {
          "internalType": "address",
          "name": "owner",
          "type": "address"
        }
      ],
      "name": "ERC721IncorrectOwner",
      "type": "error"
    },
    {
      "inputs": [
        {
          "internalType": "address",
          "name": "operator",
          "type": "address"
        },
        {
          "internalType": "uint256",
          "name": "tokenId",
          "type": "uint256"
        }
      ],
      "name": "ERC721InsufficientApproval",
      "type": "error"
    },
    {
      "inputs": [
        {
          "internalType": "address",
          "name": "approver",
          "type": "address"
        }
      ],
      "name": "ERC721InvalidApprover",
      "type": "error"
    },
    {
      "inputs": [
        {
          "internalType": "address",
          "name": "operator",
          "type": "address"
        }
      ],
      "name": "ERC721InvalidOperator",
      "type": "error"
    },
    {
      "inputs": [
        {
          "internalType": "address",
          "name": "owner",
          "type": "address"
        }
      ],
      "name": "ERC721InvalidOwner",
      "type": "error"
    },
    {
      "inputs": [
        {
          "internalType": "address",
          "name": "receiver",
          "type": "address"
        }
      ],
      "name": "ERC721InvalidReceiver",
      "type": "error"
    },
    {
      "inputs": [
        {
          "internalType": "address",
          "name": "sender",
          "type": "address"
        }
      ],
      "name": "ERC721InvalidSender",
      "type": "error"
    },
    {
      "inputs": [
        {
          "internalType": "uint256",
          "name": "tokenId",
          "type": "uint256"
        }
      ],
      "name": "ERC721NonexistentToken",
      "type": "error"
    },
    {
      "inputs": [
        {
          "internalType": "address",
          "name": "owner",
          "type": "address"
        }
      ],
      "name": "OwnableInvalidOwner",
      "type": "error"
    },
    {
      "inputs": [
        {
          "internalType": "address",
          "name": "account",
          "type": "address"
        }
      ],
      "name": "OwnableUnauthorizedAccount",
      "type": "error"
    },
    {
      "inputs": [],
      "name": "ReentrancyGuardReentrantCall",
      "type": "error"
    },
    {
      "anonymous": false,
      "inputs": [
        {
          "indexed": true,
          "internalType": "address",
          "name": "owner",
          "type": "address"
        },
        {
          "indexed": true,
          "internalType": "address",
          "name": "approved",
          "type": "address"
        },
        {
          "indexed": true,
          "internalType": "uint256",
          "name": "tokenId",
          "type": "uint256"
        }
      ],
      "name": "Approval",
      "type": "event"
    },
    {
      "anonymous": false,
      "inputs": [
        {
          "indexed": true,
          "internalType": "address",
          "name": "owner",
          "type": "address"
        },
        {
          "indexed": true,
          "internalType": "address",
          "name": "operator",
          "type": "address"
        },
        {
          "indexed": false,
          "internalType": "bool",
          "name": "approved",
          "type": "bool"
        }
      ],
      "name": "ApprovalForAll",
      "type": "event"
    },
    {
      "anonymous": false,
      "inputs": [
        {
          "indexed": true,
          "internalType": "address",
          "name": "previousOwner",
          "type": "address"
        },
        {
          "indexed": true,
          "internalType": "address",
          "name": "newOwner",
          "type": "address"
        }
      ],
      "name": "OwnershipTransferred",
      "type": "event"
    },
    {
      "anonymous": false,
      "inputs": [
        {
          "indexed": true,
          "internalType": "address",
          "name": "from",
          "type": "address"
        },
        {
          "indexed": true,
          "internalType": "address",
          "name": "to",
          "type": "address"
        },
        {
          "indexed": true,
          "internalType": "uint256",
          "name": "tokenId",
          "type": "uint256"
        }
      ],
      "name": "Transfer",
      "type": "event"
    },
    {
      "inputs": [
        {
          "internalType": "address",
          "name": "to",
          "type": "address"
        },
        {
          "internalType": "uint256",
          "name": "tokenId",
          "type": "uint256"
        }
      ],
      "name": "approve",
      "outputs": [],
      "stateMutability": "nonpayable",
      "type": "function"
    },
    {
      "inputs": [],
      "name": "balance",
      "outputs": [
        {
          "internalType": "uint256",
          "name": "",
          "type": "uint256"
        }
      ],
      "stateMutability": "view",
      "type": "function"
    },
    {
      "inputs": [
        {
          "internalType": "address",
          "name": "owner",
          "type": "address"
        }
      ],
      "name": "balanceOf",
      "outputs": [
        {
          "internalType": "uint256",
          "name": "",
          "type": "uint256"
        }
      ],
      "stateMutability": "view",
      "type": "function"
    },
    {
      "inputs": [
        {
          "internalType": "uint256",
          "name": "eventId",
          "type": "uint256"
        },
        {
          "internalType": "uint256",
          "name": "numOfticket",
          "type": "uint256"
        }
      ],
      "name": "buyTickets",
      "outputs": [],
      "stateMutability": "payable",
      "type": "function"
    },
    {
      "inputs": [
        {
          "internalType": "string",
          "name": "title",
          "type": "string"
        },
        {
          "internalType": "string",
          "name": "description",
          "type": "string"
        },
        {
          "internalType": "string",
          "name": "imageUrl",
          "type": "string"
        },
        {
          "internalType": "uint256",
          "name": "capacity",
          "type": "uint256"
        },
        {
          "internalType": "uint256",
          "name": "ticketCost",
          "type": "uint256"
        },
        {
          "internalType": "uint256",
          "name": "startsAt",
          "type": "uint256"
        },
        {
          "internalType": "uint256",
          "name": "endsAt",
          "type": "uint256"
        }
      ],
      "name": "createEvent",
      "outputs": [],
      "stateMutability": "nonpayable",
      "type": "function"
    },
    {
      "inputs": [
        {
          "internalType": "uint256",
          "name": "eventId",
          "type": "uint256"
        }
      ],
      "name": "deleteEvent",
      "outputs": [],
      "stateMutability": "nonpayable",
      "type": "function"
    },
    {
      "inputs": [
        {
          "internalType": "uint256",
          "name": "tokenId",
          "type": "uint256"
        }
      ],
      "name": "getApproved",
      "outputs": [
        {
          "internalType": "address",
          "name": "",
          "type": "address"
        }
      ],
      "stateMutability": "view",
      "type": "function"
    },
    {
      "inputs": [],
      "name": "getEvents",
      "outputs": [
        {
          "components": [
            {
              "internalType": "uint256",
              "name": "id",
              "type": "uint256"
            },
            {
              "internalType": "string",
              "name": "title",
              "type": "string"
            },
            {
              "internalType": "string",
              "name": "imageUrl",
              "type": "string"
            },
            {
              "internalType": "string",
              "name": "description",
              "type": "string"
            },
            {
              "internalType": "address",
              "name": "owner",
              "type": "address"
            },
            {
              "internalType": "uint256",
              "name": "sales",
              "type": "uint256"
            },
            {
              "internalType": "uint256",
              "name": "ticketCost",
              "type": "uint256"
            },
            {
              "internalType": "uint256",
              "name": "capacity",
              "type": "uint256"
            },
            {
              "internalType": "uint256",
              "name": "seats",
              "type": "uint256"
            },
            {
              "internalType": "uint256",
              "name": "startsAt",
              "type": "uint256"
            },
            {
              "internalType": "uint256",
              "name": "endsAt",
              "type": "uint256"
            },
            {
              "internalType": "uint256",
              "name": "timestamp",
              "type": "uint256"
            },
            {
              "internalType": "bool",
              "name": "deleted",
              "type": "bool"
            },
            {
              "internalType": "bool",
              "name": "paidOut",
              "type": "bool"
            },
            {
              "internalType": "bool",
              "name": "refunded",
              "type": "bool"
            },
            {
              "internalType": "bool",
              "name": "minted",
              "type": "bool"
            }
          ],
          "internalType": "struct Dfistival.EventStruct[]",
          "name": "Events",
          "type": "tuple[]"
        }
      ],
      "stateMutability": "view",
      "type": "function"
    },
    {
      "inputs": [],
      "name": "getMyEvents",
      "outputs": [
        {
          "components": [
            {
              "internalType": "uint256",
              "name": "id",
              "type": "uint256"
            },
            {
              "internalType": "string",
              "name": "title",
              "type": "string"
            },
            {
              "internalType": "string",
              "name": "imageUrl",
              "type": "string"
            },
            {
              "internalType": "string",
              "name": "description",
              "type": "string"
            },
            {
              "internalType": "address",
              "name": "owner",
              "type": "address"
            },
            {
              "internalType": "uint256",
              "name": "sales",
              "type": "uint256"
            },
            {
              "internalType": "uint256",
              "name": "ticketCost",
              "type": "uint256"
            },
            {
              "internalType": "uint256",
              "name": "capacity",
              "type": "uint256"
            },
            {
              "internalType": "uint256",
              "name": "seats",
              "type": "uint256"
            },
            {
              "internalType": "uint256",
              "name": "startsAt",
              "type": "uint256"
            },
            {
              "internalType": "uint256",
              "name": "endsAt",
              "type": "uint256"
            },
            {
              "internalType": "uint256",
              "name": "timestamp",
              "type": "uint256"
            },
            {
              "internalType": "bool",
              "name": "deleted",
              "type": "bool"
            },
            {
              "internalType": "bool",
              "name": "paidOut",
              "type": "bool"
            },
            {
              "internalType": "bool",
              "name": "refunded",
              "type": "bool"
            },
            {
              "internalType": "bool",
              "name": "minted",
              "type": "bool"
            }
          ],
          "internalType": "struct Dfistival.EventStruct[]",
          "name": "Events",
          "type": "tuple[]"
        }
      ],
      "stateMutability": "view",
      "type": "function"
    },
    {
      "inputs": [
        {
          "internalType": "uint256",
          "name": "eventId",
          "type": "uint256"
        }
      ],
      "name": "getSingleEvent",
      "outputs": [
        {
          "components": [
            {
              "internalType": "uint256",
              "name": "id",
              "type": "uint256"
            },
            {
              "internalType": "string",
              "name": "title",
              "type": "string"
            },
            {
              "internalType": "string",
              "name": "imageUrl",
              "type": "string"
            },
            {
              "internalType": "string",
              "name": "description",
              "type": "string"
            },
            {
              "internalType": "address",
              "name": "owner",
              "type": "address"
            },
            {
              "internalType": "uint256",
              "name": "sales",
              "type": "uint256"
            },
            {
              "internalType": "uint256",
              "name": "ticketCost",
              "type": "uint256"
            },
            {
              "internalType": "uint256",
              "name": "capacity",
              "type": "uint256"
            },
            {
              "internalType": "uint256",
              "name": "seats",
              "type": "uint256"
            },
            {
              "internalType": "uint256",
              "name": "startsAt",
              "type": "uint256"
            },
            {
              "internalType": "uint256",
              "name": "endsAt",
              "type": "uint256"
            },
            {
              "internalType": "uint256",
              "name": "timestamp",
              "type": "uint256"
            },
            {
              "internalType": "bool",
              "name": "deleted",
              "type": "bool"
            },
            {
              "internalType": "bool",
              "name": "paidOut",
              "type": "bool"
            },
            {
              "internalType": "bool",
              "name": "refunded",
              "type": "bool"
            },
            {
              "internalType": "bool",
              "name": "minted",
              "type": "bool"
            }
          ],
          "internalType": "struct Dfistival.EventStruct",
          "name": "",
          "type": "tuple"
        }
      ],
      "stateMutability": "view",
      "type": "function"
    },
    {
      "inputs": [
        {
          "internalType": "uint256",
          "name": "eventId",
          "type": "uint256"
        }
      ],
      "name": "getTickets",
      "outputs": [
        {
          "components": [
            {
              "internalType": "uint256",
              "name": "id",
              "type": "uint256"
            },
            {
              "internalType": "uint256",
              "name": "eventId",
              "type": "uint256"
            },
            {
              "internalType": "address",
              "name": "owner",
              "type": "address"
            },
            {
              "internalType": "uint256",
              "name": "ticketCost",
              "type": "uint256"
            },
            {
              "internalType": "uint256",
              "name": "timestamp",
              "type": "uint256"
            },
            {
              "internalType": "bool",
              "name": "refunded",
              "type": "bool"
            },
            {
              "internalType": "bool",
              "name": "minted",
              "type": "bool"
            }
          ],
          "internalType": "struct Dfistival.TicketStruct[]",
          "name": "Tickets",
          "type": "tuple[]"
        }
      ],
      "stateMutability": "view",
      "type": "function"
    },
    {
      "inputs": [
        {
          "internalType": "address",
          "name": "owner",
          "type": "address"
        },
        {
          "internalType": "address",
          "name": "operator",
          "type": "address"
        }
      ],
      "name": "isApprovedForAll",
      "outputs": [
        {
          "internalType": "bool",
          "name": "",
          "type": "bool"
        }
      ],
      "stateMutability": "view",
      "type": "function"
    },
    {
      "inputs": [],
      "name": "name",
      "outputs": [
        {
          "internalType": "string",
          "name": "",
          "type": "string"
        }
      ],
      "stateMutability": "view",
      "type": "function"
    },
    {
      "inputs": [],
      "name": "owner",
      "outputs": [
        {
          "internalType": "address",
          "name": "",
          "type": "address"
        }
      ],
      "stateMutability": "view",
      "type": "function"
    },
    {
      "inputs": [
        {
          "internalType": "uint256",
          "name": "tokenId",
          "type": "uint256"
        }
      ],
      "name": "ownerOf",
      "outputs": [
        {
          "internalType": "address",
          "name": "",
          "type": "address"
        }
      ],
      "stateMutability": "view",
      "type": "function"
    },
    {
      "inputs": [
        {
          "internalType": "uint256",
          "name": "eventId",
          "type": "uint256"
        }
      ],
      "name": "payout",
      "outputs": [],
      "stateMutability": "nonpayable",
      "type": "function"
    },
    {
      "inputs": [],
      "name": "renounceOwnership",
      "outputs": [],
      "stateMutability": "nonpayable",
      "type": "function"
    },
    {
      "inputs": [
        {
          "internalType": "address",
          "name": "from",
          "type": "address"
        },
        {
          "internalType": "address",
          "name": "to",
          "type": "address"
        },
        {
          "internalType": "uint256",
          "name": "tokenId",
          "type": "uint256"
        }
      ],
      "name": "safeTransferFrom",
      "outputs": [],
      "stateMutability": "nonpayable",
      "type": "function"
    },
    {
      "inputs": [
        {
          "internalType": "address",
          "name": "from",
          "type": "address"
        },
        {
          "internalType": "address",
          "name": "to",
          "type": "address"
        },
        {
          "internalType": "uint256",
          "name": "tokenId",
          "type": "uint256"
        },
        {
          "internalType": "bytes",
          "name": "data",
          "type": "bytes"
        }
      ],
      "name": "safeTransferFrom",
      "outputs": [],
      "stateMutability": "nonpayable",
      "type": "function"
    },
    {
      "inputs": [
        {
          "internalType": "address",
          "name": "operator",
          "type": "address"
        },
        {
          "internalType": "bool",
          "name": "approved",
          "type": "bool"
        }
      ],
      "name": "setApprovalForAll",
      "outputs": [],
      "stateMutability": "nonpayable",
      "type": "function"
    },
    {
      "inputs": [
        {
          "internalType": "bytes4",
          "name": "interfaceId",
          "type": "bytes4"
        }
      ],
      "name": "supportsInterface",
      "outputs": [
        {
          "internalType": "bool",
          "name": "",
          "type": "bool"
        }
      ],
      "stateMutability": "view",
      "type": "function"
    },
    {
      "inputs": [],
      "name": "symbol",
      "outputs": [
        {
          "internalType": "string",
          "name": "",
          "type": "string"
        }
      ],
      "stateMutability": "view",
      "type": "function"
    },
    {
      "inputs": [
        {
          "internalType": "uint256",
          "name": "tokenId",
          "type": "uint256"
        }
      ],
      "name": "tokenURI",
      "outputs": [
        {
          "internalType": "string",
          "name": "",
          "type": "string"
        }
      ],
      "stateMutability": "view",
      "type": "function"
    },
    {
      "inputs": [
        {
          "internalType": "address",
          "name": "from",
          "type": "address"
        },
        {
          "internalType": "address",
          "name": "to",
          "type": "address"
        },
        {
          "internalType": "uint256",
          "name": "tokenId",
          "type": "uint256"
        }
      ],
      "name": "transferFrom",
      "outputs": [],
      "stateMutability": "nonpayable",
      "type": "function"
    },
    {
      "inputs": [
        {
          "internalType": "address",
          "name": "newOwner",
          "type": "address"
        }
      ],
      "name": "transferOwnership",
      "outputs": [],
      "stateMutability": "nonpayable",
      "type": "function"
    },
    {
      "inputs": [
        {
          "internalType": "uint256",
          "name": "eventId",
          "type": "uint256"
        },
        {
          "internalType": "string",
          "name": "title",
          "type": "string"
        },
        {
          "internalType": "string",
          "name": "description",
          "type": "string"
        },
        {
          "internalType": "string",
          "name": "imageUrl",
          "type": "string"
        },
        {
          "internalType": "uint256",
          "name": "capacity",
          "type": "uint256"
        },
        {
          "internalType": "uint256",
          "name": "ticketCost",
          "type": "uint256"
        },
        {
          "internalType": "uint256",
          "name": "startsAt",
          "type": "uint256"
        },
        {
          "internalType": "uint256",
          "name": "endsAt",
          "type": "uint256"
        }
      ],
      "name": "updateEvent",
      "outputs": [],
      "stateMutability": "nonpayable",
      "type": "function"
    }
  ],
  "bytecode": "0x60806040526000600a60006101000a81548160ff0219169083151502179055503480156200002c57600080fd5b506040516200628a3803806200628a833981810160405281019062000052919062000285565b6040518060400160405280600c81526020017f466973746976616c2033205800000000000000000000000000000000000000008152506040518060400160405280600381526020017f444653000000000000000000000000000000000000000000000000000000000081525033600073ffffffffffffffffffffffffffffffffffffffff168173ffffffffffffffffffffffffffffffffffffffff1603620001345760006040517f1e4fbdf70000000000000000000000000000000000000000000000000000000081526004016200012b9190620002fc565b60405180910390fd5b62000145816200018160201b60201c565b506001808190555081600290816200015e919062000589565b50806003908162000170919062000589565b50505080600c819055505062000670565b60008060009054906101000a900473ffffffffffffffffffffffffffffffffffffffff169050816000806101000a81548173ffffffffffffffffffffffffffffffffffffffff021916908373ffffffffffffffffffffffffffffffffffffffff1602179055508173ffffffffffffffffffffffffffffffffffffffff168173ffffffffffffffffffffffffffffffffffffffff167f8be0079c531659141344cd1fd0a4f28419497f9722a3daafe3b4186f6b6457e060405160405180910390a35050565b600080fd5b6000819050919050565b6200025f816200024a565b81146200026b57600080fd5b50565b6000815190506200027f8162000254565b92915050565b6000602082840312156200029e576200029d62000245565b5b6000620002ae848285016200026e565b91505092915050565b600073ffffffffffffffffffffffffffffffffffffffff82169050919050565b6000620002e482620002b7565b9050919050565b620002f681620002d7565b82525050565b6000602082019050620003136000830184620002eb565b92915050565b600081519050919050565b7f4e487b7100000000000000000000000000000000000000000000000000000000600052604160045260246000fd5b7f4e487b7100000000000000000000000000000000000000000000000000000000600052602260045260246000fd5b600060028204905060018216806200039b57607f821691505b602082108103620003b157620003b062000353565b5b50919050565b60008190508160005260206000209050919050565b60006020601f8301049050919050565b600082821b905092915050565b6000600883026200041b7fffffffffffffffffffffffffffffffffffffffffffffffffffffffffffffffff82620003dc565b620004278683620003dc565b95508019841693508086168417925050509392505050565b6000819050919050565b60006200046a620004646200045e846200024a565b6200043f565b6200024a565b9050919050565b6000819050919050565b620004868362000449565b6200049e620004958262000471565b848454620003e9565b825550505050565b600090565b620004b5620004a6565b620004c28184846200047b565b505050565b5b81811015620004ea57620004de600082620004ab565b600181019050620004c8565b5050565b601f82111562000539576200050381620003b7565b6200050e84620003cc565b810160208510156200051e578190505b620005366200052d85620003cc565b830182620004c7565b50505b505050565b600082821c905092915050565b60006200055e600019846008026200053e565b1980831691505092915050565b60006200057983836200054b565b9150826002028217905092915050565b620005948262000319565b67ffffffffffffffff811115620005b057620005af62000324565b5b620005bc825462000382565b620005c9828285620004ee565b600060209050601f831160018114620006015760008415620005ec578287015190505b620005f885826200056b565b86555062000668565b601f1984166200061186620003b7565b60005b828110156200063b5784890151825560018201915060208501945060208101905062000614565b868310156200065b578489015162000657601f8916826200054b565b8355505b6001600288020188555050505b505050505050565b615c0a80620006806000396000f3fe6080604052600436106101815760003560e01c8063835e489f116100d1578063b88d4fde1161008a578063e985e9c511610064578063e985e9c514610585578063ead6d0dd146105c2578063f2fde38b146105eb578063f8749a581461061457610181565b8063b88d4fde146104f6578063c87b56dd1461051f578063e11523431461055c57610181565b8063835e489f146104075780638627df46146104305780638da5cb5b1461044c57806395d89b4114610477578063a22cb465146104a2578063b69ef8a8146104cb57610181565b806323b872dd1161013e57806342842e0e1161011857806342842e0e1461034d5780636352211e1461037657806370a08231146103b3578063715018a6146103f057610181565b806323b872dd146102ce5780633548124b146102f7578063404aa8f91461032257610181565b806301ffc9a71461018657806306fdde03146101c3578063071843aa146101ee578063081812fc1461022b578063095ea7b31461026857806314f2979f14610291575b600080fd5b34801561019257600080fd5b506101ad60048036038101906101a89190613e9e565b61063d565b6040516101ba9190613ee6565b60405180910390f35b3480156101cf57600080fd5b506101d861071f565b6040516101e59190613f91565b60405180910390f35b3480156101fa57600080fd5b5061021560048036038101906102109190613fe9565b6107b1565b6040516102229190614225565b60405180910390f35b34801561023757600080fd5b50610252600480360381019061024d9190613fe9565b610aa7565b60405161025f9190614256565b60405180910390f35b34801561027457600080fd5b5061028f600480360381019061028a919061429d565b610ac3565b005b34801561029d57600080fd5b506102b860048036038101906102b39190613fe9565b610ad9565b6040516102c5919061441a565b60405180910390f35b3480156102da57600080fd5b506102f560048036038101906102f0919061443c565b610bff565b005b34801561030357600080fd5b5061030c610d01565b60405161031991906146b7565b60405180910390f35b34801561032e57600080fd5b506103376111f7565b60405161034491906146b7565b60405180910390f35b34801561035957600080fd5b50610374600480360381019061036f919061443c565b61160f565b005b34801561038257600080fd5b5061039d60048036038101906103989190613fe9565b61162f565b6040516103aa9190614256565b60405180910390f35b3480156103bf57600080fd5b506103da60048036038101906103d591906146d9565b611641565b6040516103e79190614715565b60405180910390f35b3480156103fc57600080fd5b506104056116fb565b005b34801561041357600080fd5b5061042e60048036038101906104299190614865565b61170f565b005b61044a6004803603810190610445919061495b565b611b57565b005b34801561045857600080fd5b50610461611ec5565b60405161046e9190614256565b60405180910390f35b34801561048357600080fd5b5061048c611eee565b6040516104999190613f91565b60405180910390f35b3480156104ae57600080fd5b506104c960048036038101906104c491906149c7565b611f80565b005b3480156104d757600080fd5b506104e0611f96565b6040516104ed9190614715565b60405180910390f35b34801561050257600080fd5b5061051d60048036038101906105189190614aa8565b611f9c565b005b34801561052b57600080fd5b5061054660048036038101906105419190613fe9565b611fb9565b6040516105539190613f91565b60405180910390f35b34801561056857600080fd5b50610583600480360381019061057e9190613fe9565b612022565b005b34801561059157600080fd5b506105ac60048036038101906105a79190614b2b565b612386565b6040516105b99190613ee6565b60405180910390f35b3480156105ce57600080fd5b506105e960048036038101906105e49190614b6b565b61241a565b005b3480156105f757600080fd5b50610612600480360381019061060d91906146d9565b6127d7565b005b34801561062057600080fd5b5061063b60048036038101906106369190613fe9565b61285d565b005b60007f80ac58cd000000000000000000000000000000000000000000000000000000007bffffffffffffffffffffffffffffffffffffffffffffffffffffffff1916827bffffffffffffffffffffffffffffffffffffffffffffffffffffffff1916148061070857507f5b5e139f000000000000000000000000000000000000000000000000000000007bffffffffffffffffffffffffffffffffffffffffffffffffffffffff1916827bffffffffffffffffffffffffffffffffffffffffffffffffffffffff1916145b80610718575061071782612b44565b5b9050919050565b60606002805461072e90614ca4565b80601f016020809104026020016040519081016040528092919081815260200182805461075a90614ca4565b80156107a75780601f1061077c576101008083540402835291602001916107a7565b820191906000526020600020905b81548152906001019060200180831161078a57829003601f168201915b5050505050905090565b6107b9613d40565b600d600083815260200190815260200160002060405180610200016040529081600082015481526020016001820180546107f290614ca4565b80601f016020809104026020016040519081016040528092919081815260200182805461081e90614ca4565b801561086b5780601f106108405761010080835404028352916020019161086b565b820191906000526020600020905b81548152906001019060200180831161084e57829003601f168201915b5050505050815260200160028201805461088490614ca4565b80601f01602080910402602001604051908101604052809291908181526020018280546108b090614ca4565b80156108fd5780601f106108d2576101008083540402835291602001916108fd565b820191906000526020600020905b8154815290600101906020018083116108e057829003601f168201915b5050505050815260200160038201805461091690614ca4565b80601f016020809104026020016040519081016040528092919081815260200182805461094290614ca4565b801561098f5780601f106109645761010080835404028352916020019161098f565b820191906000526020600020905b81548152906001019060200180831161097257829003601f168201915b505050505081526020016004820160009054906101000a900473ffffffffffffffffffffffffffffffffffffffff1673ffffffffffffffffffffffffffffffffffffffff1673ffffffffffffffffffffffffffffffffffffffff1681526020016005820154815260200160068201548152602001600782015481526020016008820154815260200160098201548152602001600a8201548152602001600b8201548152602001600c820160009054906101000a900460ff16151515158152602001600c820160019054906101000a900460ff16151515158152602001600c820160029054906101000a900460ff16151515158152602001600c820160039054906101000a900460ff1615151515815250509050919050565b6000610ab282612bae565b50610abc82612c36565b9050919050565b610ad58282610ad0612c73565b612c7b565b5050565b6060600e6000838152602001908152602001600020805480602002602001604051908101604052809291908181526020016000905b82821015610bf457838290600052602060002090600602016040518060e001604052908160008201548152602001600182015481526020016002820160009054906101000a900473ffffffffffffffffffffffffffffffffffffffff1673ffffffffffffffffffffffffffffffffffffffff1673ffffffffffffffffffffffffffffffffffffffff16815260200160038201548152602001600482015481526020016005820160009054906101000a900460ff161515151581526020016005820160019054906101000a900460ff16151515158152505081526020019060010190610b0e565b505050509050919050565b600073ffffffffffffffffffffffffffffffffffffffff168273ffffffffffffffffffffffffffffffffffffffff1603610c715760006040517f64a0ae92000000000000000000000000000000000000000000000000000000008152600401610c689190614256565b60405180910390fd5b6000610c858383610c80612c73565b612c8d565b90508373ffffffffffffffffffffffffffffffffffffffff168173ffffffffffffffffffffffffffffffffffffffff1614610cfb578382826040517f64283d7b000000000000000000000000000000000000000000000000000000008152600401610cf293929190614cd5565b60405180910390fd5b50505050565b6060600080600190505b6008548111610dcd57600d6000828152602001908152602001600020600c0160009054906101000a900460ff16158015610da657503373ffffffffffffffffffffffffffffffffffffffff16600d600083815260200190815260200160002060040160009054906101000a900473ffffffffffffffffffffffffffffffffffffffff1673ffffffffffffffffffffffffffffffffffffffff16145b15610dba578180610db690614d3b565b9250505b8080610dc590614d3b565b915050610d0b565b508067ffffffffffffffff811115610de857610de761473a565b5b604051908082528060200260200182016040528015610e2157816020015b610e0e613d40565b815260200190600190039081610e065790505b509150600080600190505b60085481116111f157600d6000828152602001908152602001600020600c0160009054906101000a900460ff16158015610ec757503373ffffffffffffffffffffffffffffffffffffffff16600d600083815260200190815260200160002060040160009054906101000a900473ffffffffffffffffffffffffffffffffffffffff1673ffffffffffffffffffffffffffffffffffffffff16145b156111de57600d60008281526020019081526020016000206040518061020001604052908160008201548152602001600182018054610f0590614ca4565b80601f0160208091040260200160405190810160405280929190818152602001828054610f3190614ca4565b8015610f7e5780601f10610f5357610100808354040283529160200191610f7e565b820191906000526020600020905b815481529060010190602001808311610f6157829003601f168201915b50505050508152602001600282018054610f9790614ca4565b80601f0160208091040260200160405190810160405280929190818152602001828054610fc390614ca4565b80156110105780601f10610fe557610100808354040283529160200191611010565b820191906000526020600020905b815481529060010190602001808311610ff357829003601f168201915b5050505050815260200160038201805461102990614ca4565b80601f016020809104026020016040519081016040528092919081815260200182805461105590614ca4565b80156110a25780601f10611077576101008083540402835291602001916110a2565b820191906000526020600020905b81548152906001019060200180831161108557829003601f168201915b505050505081526020016004820160009054906101000a900473ffffffffffffffffffffffffffffffffffffffff1673ffffffffffffffffffffffffffffffffffffffff1673ffffffffffffffffffffffffffffffffffffffff1681526020016005820154815260200160068201548152602001600782015481526020016008820154815260200160098201548152602001600a8201548152602001600b8201548152602001600c820160009054906101000a900460ff16151515158152602001600c820160019054906101000a900460ff16151515158152602001600c820160029054906101000a900460ff16151515158152602001600c820160039054906101000a900460ff1615151515815250508483806111bf90614d3b565b9450815181106111d2576111d1614d83565b5b60200260200101819052505b80806111e990614d3b565b915050610e2c565b50505090565b6060600080600190505b600854811161125457600d6000828152602001908152602001600020600c0160009054906101000a900460ff1661124157818061123d90614d3b565b9250505b808061124c90614d3b565b915050611201565b508067ffffffffffffffff81111561126f5761126e61473a565b5b6040519080825280602002602001820160405280156112a857816020015b611295613d40565b81526020019060019003908161128d5790505b509150600080600190505b600854811161160957600d6000828152602001908152602001600020600c0160009054906101000a900460ff166115f657600d6000828152602001908152602001600020604051806102000160405290816000820154815260200160018201805461131d90614ca4565b80601f016020809104026020016040519081016040528092919081815260200182805461134990614ca4565b80156113965780601f1061136b57610100808354040283529160200191611396565b820191906000526020600020905b81548152906001019060200180831161137957829003601f168201915b505050505081526020016002820180546113af90614ca4565b80601f01602080910402602001604051908101604052809291908181526020018280546113db90614ca4565b80156114285780601f106113fd57610100808354040283529160200191611428565b820191906000526020600020905b81548152906001019060200180831161140b57829003601f168201915b5050505050815260200160038201805461144190614ca4565b80601f016020809104026020016040519081016040528092919081815260200182805461146d90614ca4565b80156114ba5780601f1061148f576101008083540402835291602001916114ba565b820191906000526020600020905b81548152906001019060200180831161149d57829003601f168201915b505050505081526020016004820160009054906101000a900473ffffffffffffffffffffffffffffffffffffffff1673ffffffffffffffffffffffffffffffffffffffff1673ffffffffffffffffffffffffffffffffffffffff1681526020016005820154815260200160068201548152602001600782015481526020016008820154815260200160098201548152602001600a8201548152602001600b8201548152602001600c820160009054906101000a900460ff16151515158152602001600c820160019054906101000a900460ff16151515158152602001600c820160029054906101000a900460ff16151515158152602001600c820160039054906101000a900460ff1615151515815250508483806115d790614d3b565b9450815181106115ea576115e9614d83565b5b60200260200101819052505b808061160190614d3b565b9150506112b3565b50505090565b61162a83838360405180602001604052806000815250611f9c565b505050565b600061163a82612bae565b9050919050565b60008073ffffffffffffffffffffffffffffffffffffffff168273ffffffffffffffffffffffffffffffffffffffff16036116b45760006040517f89c62b640000000000000000000000000000000000000000000000000000000081526004016116ab9190614256565b60405180910390fd5b600560008373ffffffffffffffffffffffffffffffffffffffff1673ffffffffffffffffffffffffffffffffffffffff168152602001908152602001600020549050919050565b611703612ea7565b61170d6000612f2e565b565b60008311611752576040517f08c379a000000000000000000000000000000000000000000000000000000000815260040161174990614e24565b60405180910390fd5b60008411611795576040517f08c379a000000000000000000000000000000000000000000000000000000000815260040161178c90614eb6565b60405180910390fd5b60008751116117d9576040517f08c379a00000000000000000000000000000000000000000000000000000000081526004016117d090614f22565b60405180910390fd5b600086511161181d576040517f08c379a000000000000000000000000000000000000000000000000000000000815260040161181490614f8e565b60405180910390fd5b6000855111611861576040517f08c379a000000000000000000000000000000000000000000000000000000000815260040161185890614ffa565b60405180910390fd5b600082116118a4576040517f08c379a000000000000000000000000000000000000000000000000000000000815260040161189b9061508c565b60405180910390fd5b8181116118e6576040517f08c379a00000000000000000000000000000000000000000000000000000000081526004016118dd9061511e565b60405180910390fd5b600860008154809291906118f990614d3b565b9190505550611906613d40565b600854816000018181525050878160200181905250868160600181905250858160400181905250848160e0018181525050838160c00181815250508281610120018181525050818161014001818152505033816080019073ffffffffffffffffffffffffffffffffffffffff16908173ffffffffffffffffffffffffffffffffffffffff1681525050611997612ff2565b816101600181815250506001600f60008360000151815260200190815260200160002060006101000a81548160ff02191690831515021790555080600d600083600001518152602001908152602001600020600082015181600001556020820151816001019081611a0891906152ea565b506040820151816002019081611a1e91906152ea565b506060820151816003019081611a3491906152ea565b5060808201518160040160006101000a81548173ffffffffffffffffffffffffffffffffffffffff021916908373ffffffffffffffffffffffffffffffffffffffff16021790555060a0820151816005015560c0820151816006015560e082015181600701556101008201518160080155610120820151816009015561014082015181600a015561016082015181600b015561018082015181600c0160006101000a81548160ff0219169083151502179055506101a082015181600c0160016101000a81548160ff0219169083151502179055506101c082015181600c0160026101000a81548160ff0219169083151502179055506101e082015181600c0160036101000a81548160ff0219169083151502179055509050505050505050505050565b600f600083815260200190815260200160002060009054906101000a900460ff16611bb7576040517f08c379a0000000000000000000000000000000000000000000000000000000008152600401611bae90615408565b60405180910390fd5b80600d600084815260200190815260200160002060060154611bd99190615428565b341015611c1b576040517f08c379a0000000000000000000000000000000000000000000000000000000008152600401611c12906154b6565b60405180910390fd5b60008111611c5e576040517f08c379a0000000000000000000000000000000000000000000000000000000008152600401611c5590615548565b60405180910390fd5b600d60008381526020019081526020016000206007015481600d600085815260200190815260200160002060080154611c979190615568565b1115611cd8576040517f08c379a0000000000000000000000000000000000000000000000000000000008152600401611ccf906155e8565b60405180910390fd5b60005b81811015611e7a57611ceb613ddb565b600e6000858152602001908152602001600020805490508160000181815250508381602001818152505033816040019073ffffffffffffffffffffffffffffffffffffffff16908173ffffffffffffffffffffffffffffffffffffffff1681525050600d600085815260200190815260200160002060060154816060018181525050611d75612ff2565b816080018181525050600e6000858152602001908152602001600020819080600181540180825580915050600190039060005260206000209060060201600090919091909150600082015181600001556020820151816001015560408201518160020160006101000a81548173ffffffffffffffffffffffffffffffffffffffff021916908373ffffffffffffffffffffffffffffffffffffffff160217905550606082015181600301556080820151816004015560a08201518160050160006101000a81548160ff02191690831515021790555060c08201518160050160016101000a81548160ff0219169083151502179055505050508080600101915050611cdb565b5080600d60008481526020019081526020016000206008016000828254611ea19190615568565b9250508190555034600b6000828254611eba9190615568565b925050819055505050565b60008060009054906101000a900473ffffffffffffffffffffffffffffffffffffffff16905090565b606060038054611efd90614ca4565b80601f0160208091040260200160405190810160405280929190818152602001828054611f2990614ca4565b8015611f765780601f10611f4b57610100808354040283529160200191611f76565b820191906000526020600020905b815481529060010190602001808311611f5957829003601f168201915b5050505050905090565b611f92611f8b612c73565b8383613012565b5050565b600b5481565b611fa7848484610bff565b611fb384848484613181565b50505050565b6060611fc482612bae565b506000611fcf613338565b90506000815111611fef576040518060200160405280600081525061201a565b80611ff98461334f565b60405160200161200a929190615644565b6040516020818303038152906040525b915050919050565b600f600082815260200190815260200160002060009054906101000a900460ff16612082576040517f08c379a000000000000000000000000000000000000000000000000000000000815260040161207990615408565b60405180910390fd5b600d6000828152602001908152602001600020600c0160019054906101000a900460ff16156120e6576040517f08c379a00000000000000000000000000000000000000000000000000000000081526004016120dd906156b4565b60405180910390fd5b600a60009054906101000a900460ff1661215a57600d6000828152602001908152602001600020600a0154612119612ff2565b11612159576040517f08c379a000000000000000000000000000000000000000000000000000000000815260040161215090615720565b60405180910390fd5b5b3373ffffffffffffffffffffffffffffffffffffffff16600d600083815260200190815260200160002060040160009054906101000a900473ffffffffffffffffffffffffffffffffffffffff1673ffffffffffffffffffffffffffffffffffffffff1614806121fc57506121cd611ec5565b73ffffffffffffffffffffffffffffffffffffffff163373ffffffffffffffffffffffffffffffffffffffff16145b61223b576040517f08c379a00000000000000000000000000000000000000000000000000000000081526004016122329061578c565b60405180910390fd5b6122448161341d565b612283576040517f08c379a000000000000000000000000000000000000000000000000000000000815260040161227a906157f8565b60405180910390fd5b6000600d600083815260200190815260200160002060080154600d6000848152602001908152602001600020600601546122bd9190615428565b905060006064600c54836122d19190615428565b6122db9190615847565b9050612328600d600085815260200190815260200160002060040160009054906101000a900473ffffffffffffffffffffffffffffffffffffffff1682846123239190615878565b613552565b612339612333611ec5565b82613552565b6001600d6000858152602001908152602001600020600c0160016101000a81548160ff02191690831515021790555081600b600082825461237a9190615878565b92505081905550505050565b6000600760008473ffffffffffffffffffffffffffffffffffffffff1673ffffffffffffffffffffffffffffffffffffffff16815260200190815260200160002060008373ffffffffffffffffffffffffffffffffffffffff1673ffffffffffffffffffffffffffffffffffffffff16815260200190815260200160002060009054906101000a900460ff16905092915050565b600f600089815260200190815260200160002060009054906101000a900460ff1661247a576040517f08c379a000000000000000000000000000000000000000000000000000000000815260040161247190615408565b60405180910390fd5b3373ffffffffffffffffffffffffffffffffffffffff16600d60008a815260200190815260200160002060040160009054906101000a900473ffffffffffffffffffffffffffffffffffffffff1673ffffffffffffffffffffffffffffffffffffffff161461251e576040517f08c379a00000000000000000000000000000000000000000000000000000000081526004016125159061578c565b60405180910390fd5b60008311612561576040517f08c379a000000000000000000000000000000000000000000000000000000000815260040161255890614e24565b60405180910390fd5b600084116125a4576040517f08c379a000000000000000000000000000000000000000000000000000000000815260040161259b9061591e565b60405180910390fd5b60008751116125e8576040517f08c379a00000000000000000000000000000000000000000000000000000000081526004016125df90614f22565b60405180910390fd5b600086511161262c576040517f08c379a000000000000000000000000000000000000000000000000000000000815260040161262390614f8e565b60405180910390fd5b6000855111612670576040517f08c379a000000000000000000000000000000000000000000000000000000000815260040161266790614ffa565b60405180910390fd5b600082116126b3576040517f08c379a00000000000000000000000000000000000000000000000000000000081526004016126aa9061508c565b60405180910390fd5b8181116126f5576040517f08c379a00000000000000000000000000000000000000000000000000000000081526004016126ec9061511e565b60405180910390fd5b86600d60008a8152602001908152602001600020600101908161271891906152ea565b5085600d60008a8152602001908152602001600020600301908161273c91906152ea565b5084600d60008a8152602001908152602001600020600201908161276091906152ea565b5083600d60008a81526020019081526020016000206007018190555082600d60008a81526020019081526020016000206006018190555081600d60008a81526020019081526020016000206009018190555080600d60008a8152602001908152602001600020600a01819055505050505050505050565b6127df612ea7565b600073ffffffffffffffffffffffffffffffffffffffff168173ffffffffffffffffffffffffffffffffffffffff16036128515760006040517f1e4fbdf70000000000000000000000000000000000000000000000000000000081526004016128489190614256565b60405180910390fd5b61285a81612f2e565b50565b600f600082815260200190815260200160002060009054906101000a900460ff166128bd576040517f08c379a00000000000000000000000000000000000000000000000000000000081526004016128b490615408565b60405180910390fd5b3373ffffffffffffffffffffffffffffffffffffffff16600d600083815260200190815260200160002060040160009054906101000a900473ffffffffffffffffffffffffffffffffffffffff1673ffffffffffffffffffffffffffffffffffffffff16148061295f5750612930611ec5565b73ffffffffffffffffffffffffffffffffffffffff163373ffffffffffffffffffffffffffffffffffffffff16145b61299e576040517f08c379a00000000000000000000000000000000000000000000000000000000081526004016129959061578c565b60405180910390fd5b600d6000828152602001908152602001600020600c0160019054906101000a900460ff1615612a02576040517f08c379a00000000000000000000000000000000000000000000000000000000081526004016129f9906156b4565b60405180910390fd5b600d6000828152602001908152602001600020600c0160029054906101000a900460ff1615612a66576040517f08c379a0000000000000000000000000000000000000000000000000000000008152600401612a5d9061598a565b60405180910390fd5b600d6000828152602001908152602001600020600c0160009054906101000a900460ff1615612aca576040517f08c379a0000000000000000000000000000000000000000000000000000000008152600401612ac1906159f6565b60405180910390fd5b612ad3816135cd565b612b12576040517f08c379a0000000000000000000000000000000000000000000000000000000008152600401612b0990615a62565b60405180910390fd5b6001600d6000838152602001908152602001600020600c0160006101000a81548160ff02191690831515021790555050565b60007f01ffc9a7000000000000000000000000000000000000000000000000000000007bffffffffffffffffffffffffffffffffffffffffffffffffffffffff1916827bffffffffffffffffffffffffffffffffffffffffffffffffffffffff1916149050919050565b600080612bba8361376d565b9050600073ffffffffffffffffffffffffffffffffffffffff168173ffffffffffffffffffffffffffffffffffffffff1603612c2d57826040517f7e273289000000000000000000000000000000000000000000000000000000008152600401612c249190614715565b60405180910390fd5b80915050919050565b60006006600083815260200190815260200160002060009054906101000a900473ffffffffffffffffffffffffffffffffffffffff169050919050565b600033905090565b612c8883838360016137aa565b505050565b600080612c998461376d565b9050600073ffffffffffffffffffffffffffffffffffffffff168373ffffffffffffffffffffffffffffffffffffffff1614612cdb57612cda81848661396f565b5b600073ffffffffffffffffffffffffffffffffffffffff168173ffffffffffffffffffffffffffffffffffffffff1614612d6c57612d1d6000856000806137aa565b6001600560008373ffffffffffffffffffffffffffffffffffffffff1673ffffffffffffffffffffffffffffffffffffffff168152602001908152602001600020600082825403925050819055505b600073ffffffffffffffffffffffffffffffffffffffff168573ffffffffffffffffffffffffffffffffffffffff1614612def576001600560008773ffffffffffffffffffffffffffffffffffffffff1673ffffffffffffffffffffffffffffffffffffffff168152602001908152602001600020600082825401925050819055505b846004600086815260200190815260200160002060006101000a81548173ffffffffffffffffffffffffffffffffffffffff021916908373ffffffffffffffffffffffffffffffffffffffff160217905550838573ffffffffffffffffffffffffffffffffffffffff168273ffffffffffffffffffffffffffffffffffffffff167fddf252ad1be2c89b69c2b068fc378daa952ba7f163c4a11628f55a4df523b3ef60405160405180910390a4809150509392505050565b612eaf612c73565b73ffffffffffffffffffffffffffffffffffffffff16612ecd611ec5565b73ffffffffffffffffffffffffffffffffffffffff1614612f2c57612ef0612c73565b6040517f118cdaa7000000000000000000000000000000000000000000000000000000008152600401612f239190614256565b60405180910390fd5b565b60008060009054906101000a900473ffffffffffffffffffffffffffffffffffffffff169050816000806101000a81548173ffffffffffffffffffffffffffffffffffffffff021916908373ffffffffffffffffffffffffffffffffffffffff1602179055508173ffffffffffffffffffffffffffffffffffffffff168173ffffffffffffffffffffffffffffffffffffffff167f8be0079c531659141344cd1fd0a4f28419497f9722a3daafe3b4186f6b6457e060405160405180910390a35050565b60006103e880426130039190615428565b61300d9190615568565b905090565b600073ffffffffffffffffffffffffffffffffffffffff168273ffffffffffffffffffffffffffffffffffffffff160361308357816040517f5b08ba1800000000000000000000000000000000000000000000000000000000815260040161307a9190614256565b60405180910390fd5b80600760008573ffffffffffffffffffffffffffffffffffffffff1673ffffffffffffffffffffffffffffffffffffffff16815260200190815260200160002060008473ffffffffffffffffffffffffffffffffffffffff1673ffffffffffffffffffffffffffffffffffffffff16815260200190815260200160002060006101000a81548160ff0219169083151502179055508173ffffffffffffffffffffffffffffffffffffffff168373ffffffffffffffffffffffffffffffffffffffff167f17307eab39ab6107e8899845ad3d59bd9653f200f220920489ca2b5937696c31836040516131749190613ee6565b60405180910390a3505050565b60008373ffffffffffffffffffffffffffffffffffffffff163b1115613332578273ffffffffffffffffffffffffffffffffffffffff1663150b7a026131c5612c73565b8685856040518563ffffffff1660e01b81526004016131e79493929190615ad7565b6020604051808303816000875af192505050801561322357506040513d601f19601f820116820180604052508101906132209190615b38565b60015b6132a7573d8060008114613253576040519150601f19603f3d011682016040523d82523d6000602084013e613258565b606091505b50600081510361329f57836040517f64a0ae920000000000000000000000000000000000000000000000000000000081526004016132969190614256565b60405180910390fd5b805181602001fd5b63150b7a0260e01b7bffffffffffffffffffffffffffffffffffffffffffffffffffffffff1916817bffffffffffffffffffffffffffffffffffffffffffffffffffffffff19161461333057836040517f64a0ae920000000000000000000000000000000000000000000000000000000081526004016133279190614256565b60405180910390fd5b505b50505050565b606060405180602001604052806000815250905090565b60606000600161335e84613a33565b01905060008167ffffffffffffffff81111561337d5761337c61473a565b5b6040519080825280601f01601f1916602001820160405280156133af5781602001600182028036833780820191505090505b509050600082602001820190505b600115613412578080600190039150507f3031323334353637383961626364656600000000000000000000000000000000600a86061a8153600a858161340657613405615818565b5b049450600085036133bd575b819350505050919050565b600080600090505b600e600084815260200190815260200160002080549050811015613519576009600081548092919061345690614d3b565b91905055506001600e6000858152602001908152602001600020828154811061348257613481614d83565b5b906000526020600020906006020160050160016101000a81548160ff02191690831515021790555061350c600e600085815260200190815260200160002082815481106134d2576134d1614d83565b5b906000526020600020906006020160020160009054906101000a900473ffffffffffffffffffffffffffffffffffffffff16600954613b86565b8080600101915050613425565b506001600d6000848152602001908152602001600020600c0160036101000a81548160ff02191690831515021790555060019050919050565b60008273ffffffffffffffffffffffffffffffffffffffff168260405161357890615b96565b60006040518083038185875af1925050503d80600081146135b5576040519150601f19603f3d011682016040523d82523d6000602084013e6135ba565b606091505b50509050806135c857600080fd5b505050565b600080600090505b600e600084815260200190815260200160002080549050811015613734576001600e6000858152602001908152602001600020828154811061361a57613619614d83565b5b906000526020600020906006020160050160006101000a81548160ff0219169083151502179055506136d8600e6000858152602001908152602001600020828154811061366a57613669614d83565b5b906000526020600020906006020160020160009054906101000a900473ffffffffffffffffffffffffffffffffffffffff16600e600086815260200190815260200160002083815481106136c1576136c0614d83565b5b906000526020600020906006020160030154613552565b600e600084815260200190815260200160002081815481106136fd576136fc614d83565b5b906000526020600020906006020160030154600b60008282546137209190615878565b9250508190555080806001019150506135d5565b506001600d6000848152602001908152602001600020600c0160026101000a81548160ff02191690831515021790555060019050919050565b60006004600083815260200190815260200160002060009054906101000a900473ffffffffffffffffffffffffffffffffffffffff169050919050565b80806137e35750600073ffffffffffffffffffffffffffffffffffffffff168273ffffffffffffffffffffffffffffffffffffffff1614155b156139175760006137f384612bae565b9050600073ffffffffffffffffffffffffffffffffffffffff168373ffffffffffffffffffffffffffffffffffffffff161415801561385e57508273ffffffffffffffffffffffffffffffffffffffff168173ffffffffffffffffffffffffffffffffffffffff1614155b8015613871575061386f8184612386565b155b156138b357826040517fa9fbf51f0000000000000000000000000000000000000000000000000000000081526004016138aa9190614256565b60405180910390fd5b811561391557838573ffffffffffffffffffffffffffffffffffffffff168273ffffffffffffffffffffffffffffffffffffffff167f8c5be1e5ebec7d5bd14f71427d1e84f3dd0314c0f7b2291e5b200ac8c7c3b92560405160405180910390a45b505b836006600085815260200190815260200160002060006101000a81548173ffffffffffffffffffffffffffffffffffffffff021916908373ffffffffffffffffffffffffffffffffffffffff16021790555050505050565b61397a838383613c7f565b613a2e57600073ffffffffffffffffffffffffffffffffffffffff168373ffffffffffffffffffffffffffffffffffffffff16036139ef57806040517f7e2732890000000000000000000000000000000000000000000000000000000081526004016139e69190614715565b60405180910390fd5b81816040517f177e802f000000000000000000000000000000000000000000000000000000008152600401613a25929190615bab565b60405180910390fd5b505050565b600080600090507a184f03e93ff9f4daa797ed6e38ed64bf6a1f0100000000000000008310613a91577a184f03e93ff9f4daa797ed6e38ed64bf6a1f0100000000000000008381613a8757613a86615818565b5b0492506040810190505b6d04ee2d6d415b85acef81000000008310613ace576d04ee2d6d415b85acef81000000008381613ac457613ac3615818565b5b0492506020810190505b662386f26fc100008310613afd57662386f26fc100008381613af357613af2615818565b5b0492506010810190505b6305f5e1008310613b26576305f5e1008381613b1c57613b1b615818565b5b0492506008810190505b6127108310613b4b576127108381613b4157613b40615818565b5b0492506004810190505b60648310613b6e5760648381613b6457613b63615818565b5b0492506002810190505b600a8310613b7d576001810190505b80915050919050565b600073ffffffffffffffffffffffffffffffffffffffff168273ffffffffffffffffffffffffffffffffffffffff1603613bf85760006040517f64a0ae92000000000000000000000000000000000000000000000000000000008152600401613bef9190614256565b60405180910390fd5b6000613c0683836000612c8d565b9050600073ffffffffffffffffffffffffffffffffffffffff168173ffffffffffffffffffffffffffffffffffffffff1614613c7a5760006040517f73c6ac6e000000000000000000000000000000000000000000000000000000008152600401613c719190614256565b60405180910390fd5b505050565b60008073ffffffffffffffffffffffffffffffffffffffff168373ffffffffffffffffffffffffffffffffffffffff1614158015613d3757508273ffffffffffffffffffffffffffffffffffffffff168473ffffffffffffffffffffffffffffffffffffffff161480613cf85750613cf78484612386565b5b80613d3657508273ffffffffffffffffffffffffffffffffffffffff16613d1e83612c36565b73ffffffffffffffffffffffffffffffffffffffff16145b5b90509392505050565b60405180610200016040528060008152602001606081526020016060815260200160608152602001600073ffffffffffffffffffffffffffffffffffffffff168152602001600081526020016000815260200160008152602001600081526020016000815260200160008152602001600081526020016000151581526020016000151581526020016000151581526020016000151581525090565b6040518060e001604052806000815260200160008152602001600073ffffffffffffffffffffffffffffffffffffffff16815260200160008152602001600081526020016000151581526020016000151581525090565b6000604051905090565b600080fd5b600080fd5b60007fffffffff0000000000000000000000000000000000000000000000000000000082169050919050565b613e7b81613e46565b8114613e8657600080fd5b50565b600081359050613e9881613e72565b92915050565b600060208284031215613eb457613eb3613e3c565b5b6000613ec284828501613e89565b91505092915050565b60008115159050919050565b613ee081613ecb565b82525050565b6000602082019050613efb6000830184613ed7565b92915050565b600081519050919050565b600082825260208201905092915050565b60005b83811015613f3b578082015181840152602081019050613f20565b60008484015250505050565b6000601f19601f8301169050919050565b6000613f6382613f01565b613f6d8185613f0c565b9350613f7d818560208601613f1d565b613f8681613f47565b840191505092915050565b60006020820190508181036000830152613fab8184613f58565b905092915050565b6000819050919050565b613fc681613fb3565b8114613fd157600080fd5b50565b600081359050613fe381613fbd565b92915050565b600060208284031215613fff57613ffe613e3c565b5b600061400d84828501613fd4565b91505092915050565b61401f81613fb3565b82525050565b600082825260208201905092915050565b600061404182613f01565b61404b8185614025565b935061405b818560208601613f1d565b61406481613f47565b840191505092915050565b600073ffffffffffffffffffffffffffffffffffffffff82169050919050565b600061409a8261406f565b9050919050565b6140aa8161408f565b82525050565b6140b981613ecb565b82525050565b6000610200830160008301516140d86000860182614016565b50602083015184820360208601526140f08282614036565b9150506040830151848203604086015261410a8282614036565b915050606083015184820360608601526141248282614036565b915050608083015161413960808601826140a1565b5060a083015161414c60a0860182614016565b5060c083015161415f60c0860182614016565b5060e083015161417260e0860182614016565b50610100830151614187610100860182614016565b5061012083015161419c610120860182614016565b506101408301516141b1610140860182614016565b506101608301516141c6610160860182614016565b506101808301516141db6101808601826140b0565b506101a08301516141f06101a08601826140b0565b506101c08301516142056101c08601826140b0565b506101e083015161421a6101e08601826140b0565b508091505092915050565b6000602082019050818103600083015261423f81846140bf565b905092915050565b6142508161408f565b82525050565b600060208201905061426b6000830184614247565b92915050565b61427a8161408f565b811461428557600080fd5b50565b60008135905061429781614271565b92915050565b600080604083850312156142b4576142b3613e3c565b5b60006142c285828601614288565b92505060206142d385828601613fd4565b9150509250929050565b600081519050919050565b600082825260208201905092915050565b6000819050602082019050919050565b60e08201600082015161431f6000850182614016565b5060208201516143326020850182614016565b50604082015161434560408501826140a1565b5060608201516143586060850182614016565b50608082015161436b6080850182614016565b5060a082015161437e60a08501826140b0565b5060c082015161439160c08501826140b0565b50505050565b60006143a38383614309565b60e08301905092915050565b6000602082019050919050565b60006143c7826142dd565b6143d181856142e8565b93506143dc836142f9565b8060005b8381101561440d5781516143f48882614397565b97506143ff836143af565b9250506001810190506143e0565b5085935050505092915050565b6000602082019050818103600083015261443481846143bc565b905092915050565b60008060006060848603121561445557614454613e3c565b5b600061446386828701614288565b935050602061447486828701614288565b925050604061448586828701613fd4565b9150509250925092565b600081519050919050565b600082825260208201905092915050565b6000819050602082019050919050565b6000610200830160008301516144d46000860182614016565b50602083015184820360208601526144ec8282614036565b915050604083015184820360408601526145068282614036565b915050606083015184820360608601526145208282614036565b915050608083015161453560808601826140a1565b5060a083015161454860a0860182614016565b5060c083015161455b60c0860182614016565b5060e083015161456e60e0860182614016565b50610100830151614583610100860182614016565b50610120830151614598610120860182614016565b506101408301516145ad610140860182614016565b506101608301516145c2610160860182614016565b506101808301516145d76101808601826140b0565b506101a08301516145ec6101a08601826140b0565b506101c08301516146016101c08601826140b0565b506101e08301516146166101e08601826140b0565b508091505092915050565b600061462d83836144bb565b905092915050565b6000602082019050919050565b600061464d8261448f565b614657818561449a565b935083602082028501614669856144ab565b8060005b858110156146a557848403895281516146868582614621565b945061469183614635565b925060208a0199505060018101905061466d565b50829750879550505050505092915050565b600060208201905081810360008301526146d18184614642565b905092915050565b6000602082840312156146ef576146ee613e3c565b5b60006146fd84828501614288565b91505092915050565b61470f81613fb3565b82525050565b600060208201905061472a6000830184614706565b92915050565b600080fd5b600080fd5b7f4e487b7100000000000000000000000000000000000000000000000000000000600052604160045260246000fd5b61477282613f47565b810181811067ffffffffffffffff821117156147915761479061473a565b5b80604052505050565b60006147a4613e32565b90506147b08282614769565b919050565b600067ffffffffffffffff8211156147d0576147cf61473a565b5b6147d982613f47565b9050602081019050919050565b82818337600083830152505050565b6000614808614803846147b5565b61479a565b90508281526020810184848401111561482457614823614735565b5b61482f8482856147e6565b509392505050565b600082601f83011261484c5761484b614730565b5b813561485c8482602086016147f5565b91505092915050565b600080600080600080600060e0888a03121561488457614883613e3c565b5b600088013567ffffffffffffffff8111156148a2576148a1613e41565b5b6148ae8a828b01614837565b975050602088013567ffffffffffffffff8111156148cf576148ce613e41565b5b6148db8a828b01614837565b965050604088013567ffffffffffffffff8111156148fc576148fb613e41565b5b6149088a828b01614837565b95505060606149198a828b01613fd4565b945050608061492a8a828b01613fd4565b93505060a061493b8a828b01613fd4565b92505060c061494c8a828b01613fd4565b91505092959891949750929550565b6000806040838503121561497257614971613e3c565b5b600061498085828601613fd4565b925050602061499185828601613fd4565b9150509250929050565b6149a481613ecb565b81146149af57600080fd5b50565b6000813590506149c18161499b565b92915050565b600080604083850312156149de576149dd613e3c565b5b60006149ec85828601614288565b92505060206149fd858286016149b2565b9150509250929050565b600067ffffffffffffffff821115614a2257614a2161473a565b5b614a2b82613f47565b9050602081019050919050565b6000614a4b614a4684614a07565b61479a565b905082815260208101848484011115614a6757614a66614735565b5b614a728482856147e6565b509392505050565b600082601f830112614a8f57614a8e614730565b5b8135614a9f848260208601614a38565b91505092915050565b60008060008060808587031215614ac257614ac1613e3c565b5b6000614ad087828801614288565b9450506020614ae187828801614288565b9350506040614af287828801613fd4565b925050606085013567ffffffffffffffff811115614b1357614b12613e41565b5b614b1f87828801614a7a565b91505092959194509250565b60008060408385031215614b4257614b41613e3c565b5b6000614b5085828601614288565b9250506020614b6185828601614288565b9150509250929050565b600080600080600080600080610100898b031215614b8c57614b8b613e3c565b5b6000614b9a8b828c01613fd4565b985050602089013567ffffffffffffffff811115614bbb57614bba613e41565b5b614bc78b828c01614837565b975050604089013567ffffffffffffffff811115614be857614be7613e41565b5b614bf48b828c01614837565b965050606089013567ffffffffffffffff811115614c1557614c14613e41565b5b614c218b828c01614837565b9550506080614c328b828c01613fd4565b94505060a0614c438b828c01613fd4565b93505060c0614c548b828c01613fd4565b92505060e0614c658b828c01613fd4565b9150509295985092959890939650565b7f4e487b7100000000000000000000000000000000000000000000000000000000600052602260045260246000fd5b60006002820490506001821680614cbc57607f821691505b602082108103614ccf57614cce614c75565b5b50919050565b6000606082019050614cea6000830186614247565b614cf76020830185614706565b614d046040830184614247565b949350505050565b7f4e487b7100000000000000000000000000000000000000000000000000000000600052601160045260246000fd5b6000614d4682613fb3565b91507fffffffffffffffffffffffffffffffffffffffffffffffffffffffffffffffff8203614d7857614d77614d0c565b5b600182019050919050565b7f4e487b7100000000000000000000000000000000000000000000000000000000600052603260045260246000fd5b7f5469636b6574436f7374206d7573742062652067726561746572207468616e2060008201527f7a65726f00000000000000000000000000000000000000000000000000000000602082015250565b6000614e0e602483613f0c565b9150614e1982614db2565b604082019050919050565b60006020820190508181036000830152614e3d81614e01565b9050919050565b7f4361706163697479206d7573742062652067726561746572207468616e207a6560008201527f726f000000000000000000000000000000000000000000000000000000000000602082015250565b6000614ea0602283613f0c565b9150614eab82614e44565b604082019050919050565b60006020820190508181036000830152614ecf81614e93565b9050919050565b7f5469746c652063616e6e6f7420626520656d7074790000000000000000000000600082015250565b6000614f0c601583613f0c565b9150614f1782614ed6565b602082019050919050565b60006020820190508181036000830152614f3b81614eff565b9050919050565b7f4465736372697074696f6e2063616e6e6f7420626520656d7074790000000000600082015250565b6000614f78601b83613f0c565b9150614f8382614f42565b602082019050919050565b60006020820190508181036000830152614fa781614f6b565b9050919050565b7f496d61676555726c2063616e6e6f7420626520656d7074790000000000000000600082015250565b6000614fe4601883613f0c565b9150614fef82614fae565b602082019050919050565b6000602082019050818103600083015261501381614fd7565b9050919050565b7f53746172742064617465206d7573742062652067726561746572207468616e2060008201527f7a65726f00000000000000000000000000000000000000000000000000000000602082015250565b6000615076602483613f0c565b91506150818261501a565b604082019050919050565b600060208201905081810360008301526150a581615069565b9050919050565b7f456e642064617465206d7573742062652067726561746572207468616e20737460008201527f6172742064617465000000000000000000000000000000000000000000000000602082015250565b6000615108602883613f0c565b9150615113826150ac565b604082019050919050565b60006020820190508181036000830152615137816150fb565b9050919050565b60008190508160005260206000209050919050565b60006020601f8301049050919050565b600082821b905092915050565b6000600883026151a07fffffffffffffffffffffffffffffffffffffffffffffffffffffffffffffffff82615163565b6151aa8683615163565b95508019841693508086168417925050509392505050565b6000819050919050565b60006151e76151e26151dd84613fb3565b6151c2565b613fb3565b9050919050565b6000819050919050565b615201836151cc565b61521561520d826151ee565b848454615170565b825550505050565b600090565b61522a61521d565b6152358184846151f8565b505050565b5b818110156152595761524e600082615222565b60018101905061523b565b5050565b601f82111561529e5761526f8161513e565b61527884615153565b81016020851015615287578190505b61529b61529385615153565b83018261523a565b50505b505050565b600082821c905092915050565b60006152c1600019846008026152a3565b1980831691505092915050565b60006152da83836152b0565b9150826002028217905092915050565b6152f382613f01565b67ffffffffffffffff81111561530c5761530b61473a565b5b6153168254614ca4565b61532182828561525d565b600060209050601f8311600181146153545760008415615342578287015190505b61534c85826152ce565b8655506153b4565b601f1984166153628661513e565b60005b8281101561538a57848901518255600182019150602085019450602081019050615365565b868310156153a757848901516153a3601f8916826152b0565b8355505b6001600288020188555050505b505050505050565b7f4576656e74206e6f7420666f756e640000000000000000000000000000000000600082015250565b60006153f2600f83613f0c565b91506153fd826153bc565b602082019050919050565b60006020820190508181036000830152615421816153e5565b9050919050565b600061543382613fb3565b915061543e83613fb3565b925082820261544c81613fb3565b9150828204841483151761546357615462614d0c565b5b5092915050565b7f496e73756666696369656e7420616d6f756e7400000000000000000000000000600082015250565b60006154a0601383613f0c565b91506154ab8261546a565b602082019050919050565b600060208201905081810360008301526154cf81615493565b9050919050565b7f4e756d4f667469636b6574206d7573742062652067726561746572207468616e60008201527f207a65726f000000000000000000000000000000000000000000000000000000602082015250565b6000615532602583613f0c565b915061553d826154d6565b604082019050919050565b6000602082019050818103600083015261556181615525565b9050919050565b600061557382613fb3565b915061557e83613fb3565b925082820190508082111561559657615595614d0c565b5b92915050565b7f4f7574206f662073656174696e67206361706163697479000000000000000000600082015250565b60006155d2601783613f0c565b91506155dd8261559c565b602082019050919050565b60006020820190508181036000830152615601816155c5565b9050919050565b600081905092915050565b600061561e82613f01565b6156288185615608565b9350615638818560208601613f1d565b80840191505092915050565b60006156508285615613565b915061565c8284615613565b91508190509392505050565b7f4576656e7420616c72656164792070616964206f757400000000000000000000600082015250565b600061569e601683613f0c565b91506156a982615668565b602082019050919050565b600060208201905081810360008301526156cd81615691565b9050919050565b7f4576656e74207374696c6c206f6e676f696e6700000000000000000000000000600082015250565b600061570a601383613f0c565b9150615715826156d4565b602082019050919050565b60006020820190508181036000830152615739816156fd565b9050919050565b7f556e617574686f72697a656420656e7469747900000000000000000000000000600082015250565b6000615776601383613f0c565b915061578182615740565b602082019050919050565b600060208201905081810360008301526157a581615769565b9050919050565b7f4576656e74206661696c656420746f206d696e74000000000000000000000000600082015250565b60006157e2601483613f0c565b91506157ed826157ac565b602082019050919050565b60006020820190508181036000830152615811816157d5565b9050919050565b7f4e487b7100000000000000000000000000000000000000000000000000000000600052601260045260246000fd5b600061585282613fb3565b915061585d83613fb3565b92508261586d5761586c615818565b5b828204905092915050565b600061588382613fb3565b915061588e83613fb3565b92508282039050818111156158a6576158a5614d0c565b5b92915050565b7f6361706163697479206d7573742062652067726561746572207468616e207a6560008201527f726f000000000000000000000000000000000000000000000000000000000000602082015250565b6000615908602283613f0c565b9150615913826158ac565b604082019050919050565b60006020820190508181036000830152615937816158fb565b9050919050565b7f4576656e7420616c726561647920726566756e64656400000000000000000000600082015250565b6000615974601683613f0c565b915061597f8261593e565b602082019050919050565b600060208201905081810360008301526159a381615967565b9050919050565b7f4576656e7420616c72656164792064656c657465640000000000000000000000600082015250565b60006159e0601583613f0c565b91506159eb826159aa565b602082019050919050565b60006020820190508181036000830152615a0f816159d3565b9050919050565b7f4576656e74206661696c656420746f20726566756e6400000000000000000000600082015250565b6000615a4c601683613f0c565b9150615a5782615a16565b602082019050919050565b60006020820190508181036000830152615a7b81615a3f565b9050919050565b600081519050919050565b600082825260208201905092915050565b6000615aa982615a82565b615ab38185615a8d565b9350615ac3818560208601613f1d565b615acc81613f47565b840191505092915050565b6000608082019050615aec6000830187614247565b615af96020830186614247565b615b066040830185614706565b8181036060830152615b188184615a9e565b905095945050505050565b600081519050615b3281613e72565b92915050565b600060208284031215615b4e57615b4d613e3c565b5b6000615b5c84828501615b23565b91505092915050565b600081905092915050565b50565b6000615b80600083615b65565b9150615b8b82615b70565b600082019050919050565b6000615ba182615b73565b9150819050919050565b6000604082019050615bc06000830185614247565b615bcd6020830184614706565b939250505056fea264697066735822122039a11ba99af9e4f68467570920e1707363933788d9992e9e48870b34708ec08564736f6c63430008180033",
  "linkReferences": {},
  "deployedLinkReferences": {}
}